S0160000504859535F3238305F46494E414C2E7372656308
S11300000C94EF000C940C010C940C010C940C0156
S11300100C940C010C940C010C940C010C940C0128
S11300200C940C010C940C010C940C010C940C0118
S11300300C940C010C940C010C940C010C940C0108
S11300400C940C010C940C010C940C010C940C01F8
S11300500C940C010C940C010C943B010C940C01B9
S11300600C940C010C940C010C940E010C940C01D6
S11300700C940C010C940C010C940C010C940C01C8
S11300800C940C010C940C010C940C010C940C01B8
S11300900C940C010C940C010C940C010C940C01A8
S11300A06E616E00696E660000407A10F35A00A01B
S11300B0724E18090010A5D4E80000E8764817002D
S11300C000E40B54020000CA9A3B000000E1F5056D
S11300D0000080969800000040420F000000A086B7
S11300E001000000102700000000E80300000000E9
S11300F06400000000000A0000000000010000008D
S113010000002C76D888DC674F0823DFC1DFAE59A6
S1130110E1B1B796E5E3E453C63AE651997696E839
S1130120E6C28426EB898C9B62ED407C6FFCEFBCBD
S11301309C9F40F2BAA56FA5F490055A2AF75C93E8
S11301406B6CF9676DC11BFCE0E40D47FEF520E61E
S1130150B500D0ED902E0300943577050080841E01
S1130160080000204E0A000000C80C333333330F5C
S1130170986E12831141EF8D2114893BE65516CFF9
S1130180FEE6DB18D1844B381BF77C1D901DA4BB05
S1130190E424203284725E228100C9F124ECA1E5BA
S11301A03D274E414E494E495459494E46CDCCCC3B
S11301B03D0AD7233C17B7D13877CC2B329595E637
S11301C0241FB14F0A000020410000C84200401C17
S11301D04620BCBE4CCA1B0E5AAEC59D74001124E9
S11301E01FBECFEFCDBFDFE3DEBF18E2A0E0B8E271
S11301F0E0EEFBE102C005900D92AE32B107D9F7F3
S113020028E2AEE2B8E201C01D92A63EB207E1F7D1
S11302100E9475010C94E30D0C9400001F920F9240
S11302200FB60F9211248F939F93EF93FF938091B6
S113023020088D3069F4E0914128F0E0EE5BF74D41
S11302408AE080831092412881E0809330280AC09C
S1130250E091412891E09E0F90934128F0E0EE5BFD
S1130260F74D8083FF91EF919F918F910F900FBE77
S11302700F901F9018951F920F920FB60F92112492
S11302808F939F938091100690911106809331284B
S1130290909332289F918F910F900FBE0F901F90D3
S11302A01895DC0180E00BC09091240895FFFCCFE9
S11302B0FD01E20FF31F9081909322088F5F282F96
S11302C030E0FD0101900020E9F73197EA1BFB0BB8
S11302D02E173F0748F32FE38DE093E02150804031
S11302E09040E1F700C0000008958F929F92AF9272
S11302F0BF92CF92DF92EF92FF920F931F93CF930F
S1130300DF93CDB7DEB7C656D109CDBFDEBF20E03F
S113031030E088ED84BF20936100E0E0F8E086815E
S11303208064868387818360878326EB32E020871D
S11303303187E0E2F8E08581806885838681806C7E
S1130340868387818360878320873187E0E0F6E0B6
S113035080818360808381818360818382818765DA
S113036082838381806A8383858184608583828597
S113037081608287808581608087E0E0F4E080810D
S113038081608083E0E4F4E0808181608083808107
S11303908D7F80832FE734E88EE121503040804008
S11303A0E1F700C0000088E298E20E94510187E072
S11303B098E20E9451018CE098E20E94510180E091
S11303C098E20E94510180E298E20E94510189E181
S11303D098E20E9451019FEFE8E0FDE39150E04074
S11303E0F040E1F700C0000083E198E20E9451016F
S11303F02FEF38E08DE3215030408040E1F700C01A
S113040000008FB780688FBF809130288823E1F384
S113041064E270E082E498E20E94030B892B09F401
S1130420B3C26E961FAE6E9720E030E01BC0D901B8
S1130430AA0FBB1FC901880F991F880F991F880F26
S1130440991FA80FB91FE3E3F0E0EC0FFD1FAE0FF7
S1130450BF1F8BE0EAECFBE501900D928A95E1F772
S11304602F5F3F4F2E31310510F36CE270E082E4D0
S113047098E20E94250BBC0182E498E20E94300BB2
S1130480E2E4F8E201900020E9F73197AF01425429
S113049058424150510963E478E282E498E20E94B0
S11304A0080B00E010E042C065ED7BE582E498E2D1
S11304B00E94030BBC01C801880F991F9801220FE9
S11304C0331F220F331F220F331F820F931F23E387
S11304D030E02C0F3D1F820F931F0E94300B60E011
S11304E070E082E498E20E94250B2CE2FC01208358
S11304F06CE270E082E498E20E94250BBC0182E485
S113050098E20E94300BE2E4F8E201900020E9F75F
S11305103197AF01425458424150510963E478E2A3
S113052082E498E20E94080B0F5F1F4F023011050E
S11305300CF4BACF67ED7BE582E498E20E94030BEA
S1130540BC01CE01895B9F4F0E94300B00E010E09C
S113055025C09801220F331FC801880F991F880FE7
S1130560991F880F991F820F931F23E330E02C0FEC
S11305703D1F820F931F0E941C0AF801EE0FFF1FFC
S1130580EE0FFF1F21E530E02C0F3D1FE20FF31F9C
S113059060837183828393830F5F1F4F0330110540
S11305A0C0F280E090E01AC09C012F5F3F4FF90138
S11305B0EE0FFF1FEE0FFF1FEC57F74D40815181E7
S11305C062817381880F991F880F991FFC01EC5772
S11305D0F74D4083518362837383C901873091054A
S11305E018F365968CAD9DADAEADBFAD65978093A8
S11305F0A0289093A128A093A228B093A32880E0D8
S113060090E01AC09C012F5F3F4FF901EE0FFF1FCE
S1130610EE0FFF1FEC53F74D4081518162817381CE
S1130620880F991F880F991FFC01EC53F74D4083E5
S1130630518362837383C9018730910518F36996E6
S11306408CAD9DADAEADBFAD69978093E02890931E
S1130650E128A093E228B093E32880E090E01AC058
S11306609C012F5F3F4FF901EE0FFF1FEE0FFF1F9D
S1130670EC55F74D4081518162817381880F991F38
S1130680880F991FFC01EC55F74D40835183628319
S11306907383C9018730910518F36D968CAD9DADB8
S11306A0AEADBFAD6D978093C0289093C128A09341
S11306B0C228B093C32880E090E012C09C012F5F51
S11306C03F4FF901EE0FFF1FEC58F74D4081518168
S11306D0880F991FFC01EC58F74D40835183C901E1
S11306E08730910558F38091312890913228809376
S11306F082289093832800E010E060E070E0CB0152
S11307000FC0F801EE0FFF1FEE0FFF1FEC57F74D60
S113071020813181428153810E94D8040F5F1F4F91
S11307200830110570F320E030E040E05EE30E9401
S11307300106F62EE72ED82EC92E862F9E2DAD2D1E
S1130740BC2D80933D2890933E28A0933F28B093DE
S1130750402800E010E060E070E0CB010FC0F80139
S1130760EE0FFF1FEE0FFF1FEC53F74D2081318179
S1130770428153810E94D8040F5F1F4F0830110536
S113078070F320E030E040E05EE30E9401066093F5
S1130790392870933A2880933B2890933C2800E0B2
S11307A010E060E070E0CB010FC0F801EE0FFF1F16
S11307B0EE0FFF1FEC55F74D2081318142815381AB
S11307C00E94D8040F5F1F4F0830110570F320E01A
S11307D030E040E05EE30E940106609335287093A8
S11307E03628809337289093382800E010E0812C35
S11307F0912C540115C0F801EE0FFF1FEC58F74D72
S11308006081718180E090E00E9473059B01AC01DE
S1130810C501B4010E94D8044B015C010F5F1F4F56
S11308200830110540F320E030E040E05EE3C5010C
S1130830B4010E9401060E9444056093332870931A
S113084034281982CF92DF92EF92FF920F2EF9EDA6
S1130850CF2EFBE5DF2EF02DDF92CF928E01035ACF
S11308601F4F1F930F930E94A50BB801CE01019651
S11308707C010E941A0BF70101900020E9F73197DF
S11308800F2EFCE2AF2EB12CF02DA082B18280910C
S11308903C288F9380913B288F9380913A288F93A3
S11308A0809139288F93DF92CF921F930F930E94E8
S11308B0A50BB801C7010E941A0BF7010190002093
S11308C0E9F73197A082B182809138288F93809183
S11308D037288F93809136288F93809135288F9372
S11308E0DF92CF921F930F930E94A50BB801C7010B
S11308F00E941A0BF70101900020E9F73197A082BA
S1130900B182809134288F93809133288F938DED19
S11309109BE59F938F931F930F930E94A50BB801A0
S1130920C7010E941A0BF70101900020E9F73197E3
S11309308AE090E080839183FF92EF9282E498E2D0
S11309409F938F930E94A50BCDBFDEBF20E00CC008
S11309508091040885FFFCCFE22FF0E0EE5BF74DB9
S11309608081809302082F5F822F90E0E2E4F8E216
S113097001900020E9F73197E254F8428E179F075F
S113098038F31092302840CD80E090E0CA59DF4F10
S1130990CDBFDEBFDF91CF911F910F91FF90EF90FC
S11309A0DF90CF90BF90AF909F908F900895505854
S11309B0BB27AA270E94EF040C94C7050E94B9051F
S11309C038F00E94C00520F039F49F3F19F426F452
S11309D00C94B6050EF4E095E7FB0C94B005E92FF2
S11309E00E94D80558F3BA1762077307840795075E
S11309F020F079F4A6F50C94FA050EF4E0950B2E8C
S1130A00BA2FA02D0B01B90190010C01CA01A0015C
S1130A101124FF27591B99F0593F50F4503E68F1B7
S1130A201A16F040A22F232F342F4427585FF3CFF8
S1130A30469537952795A795F0405395C9F77EF4C9
S1130A401F16BA0B620B730B840BBAF09150A1F012
S1130A50FF0FBB1F661F771F881FC2F70EC0BA0F98
S1130A60621F731F841F48F4879577956795B79520
S1130A70F7959E3F08F0B0CF9395880F08F099271B
S1130A80EE0F9795879508950E94E00588F09F578B
S1130A9098F0B92F9927B751B0F0E1F0660F771F9E
S1130AA0881F991F1AF0BA95C9F714C0B13091F094
S1130AB00E94FA05B1E008950C94FA05672F782F87
S1130AC08827B85F39F0B93FCCF386957795679559
S1130AD0B395D9F73EF490958095709561957F4FC5
S1130AE08F4F9F4F0895E89409C097FB3EF490956B
S1130AF08095709561957F4F8F4F9F4F9923A9F0F3
S1130B00F92F96E9BB279395F69587957795679581
S1130B10B795F111F8CFFAF4BB0F11F460FF1BC0C5
S1130B206F5F7F4F8F4F9F4F16C0882311F096E958
S1130B3011C0772321F09EE8872F762F05C0662306
S1130B4071F096E8862F70E060E02AF09A95660FBF
S1130B50771F881FDAF7880F9695879597F9089578
S1130B6097F99F6780E870E060E008959FEF80EC5C
S1130B70089500240A9416161706180609060895FF
S1130B8000240A9412161306140605060895092E65
S1130B900394000C11F4882352F0BB0F40F4BF2BD4
S1130BA011F460FF04C06F5F7F4F8F4F9F4F089514
S1130BB057FD9058440F551F59F05F3F71F047950A
S1130BC0880F97FB991F61F09F3F79F087950895EF
S1130BD0121613061406551FF2CF4695F1DF08C00E
S1130BE0161617061806991FF1CF8695710561052B
S1130BF008940895E894BB2766277727CB0197F9D3
S1130C0008950E9414060C94C7050E94B90538F093
S1130C100E94C00520F0952311F00C94B0050C94AB
S1130C20B60511240C94FB050E94D80570F3959F1A
S1130C30C1F3950F50E0551F629FF001729FBB27CF
S1130C40F00DB11D639FAA27F00DB11DAA1F649F6B
S1130C506627B00DA11D661F829F2227B00DA11D1E
S1130C60621F739FB00DA11D621F839FA00D611DA4
S1130C70221F749F3327A00D611D231F849F600DC5
S1130C80211D822F762F6A2F11249F5750409AF0EE
S1130C90F1F088234AF0EE0FFF1FBB1F661F771F7A
S1130CA0881F91505040A9F79E3F510580F00C9445
S1130CB0B0050C94FB055F3FE4F3983ED4F38695AE
S1130CC077956795B795F795E7959F5FC1F7FE2BE5
S1130CD0880F911D9695879597F90895A0E1B0E046
S1130CE0E4E7F6E00C94EB097C011B016A01FC01CA
S1130CF016821782838181FF44C39E012F5F3F4F79
S1130D003901F7019381F10193FD859193FF81915D
S1130D101F01882309F431C3853239F493FD859189
S1130D2093FF81911F01853239F4B70190E00E944D
S1130D30690B56016501E5CF10E0512C912CFFE1C0
S1130D40F915D8F08B3279F038F4803279F08332A7
S1130D50A1F4F92DF0612EC08D3261F0803369F475
S1130D60292D21602DC0392D3260932E892D846068
S1130D70982E2AC0E92DE86015C097FC2DC020EDFF
S1130D80280F2A3088F496FE06C03AE0139F200DFF
S1130D901124122F19C08AE0589E200D1124522EBE
S1130DA0E92DE0629E2E10C08E3231F496FCE5C22D
S1130DB0F92DF0649F2E08C08C3621F4292D20686B
S1130DC0922E02C0883641F4F10193FD859193FF80
S1130DD081911F018111B3CF9BEB980F933020F4C5
S1130DE0992D9061805E07C09BE9980F933008F0BD
S1130DF066C1992D9F7E96FF16E09F73992E8536C6
S1130E0019F49064992E08C0863621F4392F30687D
S1130E10932E02C01111115097FE07C01C3350F4D9
S1130E2044244394410E27E00BC0183038F027E0E7
S1130E3017E005C027E09CE3492E02C0212F412C76
S1130E40560184E0A80EB11CF60160817181828193
S1130E509381042DA3010E94200A6C01F981FC876F
S1130E60F0FF02C0F3FF06C091FC06C092FE06C06C
S1130E7000E205C00DE203C00BE201C000E08C8576
S1130E808C7019F001115AC29BC297FE10C04C0C11
S1130E90FC85F4FF04C08A81813309F44A94141454
S1130EA074F528E0241578F588E0482E2CC096FCCB
S1130EB02AC0812F90E08C159D059CF03CEFC31651
S1130EC03FEFD30674F0892D8068982E0AC0E2E0C3
S1130ED0F0E0EC0FFD1FE10FF11D8081803319F468
S1130EE011501111F4CF97FE0EC044244394410EC7
S1130EF0812F90E0C816D9062CF41C1904C0442490
S1130F00439401C010E097FE06C01C141D0434F481
S1130F10C601019605C085E090E002C081E090E042
S1130F2001110196112331F0212F30E02F5F3F4F43
S1130F30820F931F252D30E08217930714F4581A5B
S1130F4001C0512C892D897049F4552039F0B7011D
S1130F5080E290E00E94690B5A94F7CF002329F0B5
S1130F60B701802F90E00E94690B93FC09C05520C3
S1130F7039F0B70180E390E00E94690B5A94F7CFEF
S1130F8097FE4CC04601D7FE02C0812C912CC601AD
S1130F9088199909F301E80FF91FED87FE87960177
S1130FA0241931092F87388B012F10E011950195F1
S1130FB011093FEF8316930629F4B7018EE290E0FE
S1130FC00E94690BC814D9044CF08F859889881540
S1130FD0990524F4ED85FE85818101C080E3F1E06B
S1130FE08F1A91082D853E852F5F3F4F2D873E87B1
S1130FF0801691062CF0B70190E00E94690BD9CFBE
S1131000C814D90441F49A81963320F4953319F421
S11310103C8534FF81E3B70190E04EC08A8181337F
S113102019F09C859F7E9C87B70190E00E94690B14
S1131030111105C094FC18C085E690E017C0B701F3
S11310408EE290E00E94690B1E5F82E001E0080FCF
S1131050F301E80FF11D8081B70190E00E94690B54
S1131060802F0113F3CFE6CF85E490E0B7010E940F
S1131070690BD7FC06C0C114D10441F4EC85E4FF2C
S113108005C0D194C194D1088DE201C08BE2B701AF
S113109090E00E94690B80E32AE0C216D1042CF090
S11310A08F5FFAE0CF1AD108F7CFB70190E00E9422
S11310B0690BB701C601C0960E94690B54C18336FF
S11310C031F0833779F0833509F056C020C05601DA
S11310D032E0A30EB11CF6018081898301E010E0A7
S11310E0630112C05601F2E0AF0EB11CF601C080DC
S11310F0D18096FE03C0612F70E002C06FEF7FEFD6
S1131100C6010E94370B8C01F92DFF7714C05601DC
S113111022E0A20EB11CF601C080D18096FE03C06D
S1131120612F70E002C06FEF7FEFC6010E94F80AE2
S11311308C01F92DF0689F2EF3FD1AC0852D90E0E7
S113114008171907A8F4B70180E290E00E94690B20
S11311505A94F4CFF60197FC859197FE81916F0123
S1131160B70190E00E94690B51105A940150110983
S11311700115110579F7F7C0843611F0893661F548
S1131180560197FE09C024E0A20EB11CF60160814D
S11311907181828193810AC0F2E0AF0EB11CF60125
S11311A060817181072E000C880B990BF92DFF7655
S11311B09F2E97FF09C090958095709561957F4FFC
S11311C08F4F9F4FF0689F2E2AE030E0A3010E94CA
S11311D0C70BC82EC6183FC0092D853721F40F7ED2
S11311E02AE030E01DC0097F8F3691F018F488356D
S11311F059F0C3C0803719F0883711F0BEC00061C0
S113120004FF09C0046007C094FE08C0066006C05D
S113121028E030E005C020E130E002C020E132E007
S1131220560107FF09C084E0A80EB11CF6016081D5
S113123071818281938108C0F2E0AF0EB11CF60186
S11312406081718180E090E0A3010E94C70BC82EE9
S1131250C6180F77902E96FE0BC0092D0E7FC1166F
S113126050F494FE0AC092FC08C0092D0E7E05C0FD
S1131270DC2C092D03C0DC2C01C0D12E04FF0DC0D1
S1131280FE01EC0DF11D8081803311F4097E09C04B
S113129002FF06C0D394D39404C0802F867809F04B
S11312A0D39403FD11C000FF06C01C2DD51480F497
S11312B0150D1D190DC0D51458F4B70180E290E046
S11312C00E94690BD394F7CFD51410F45D1801C0B4
S11312D0512C04FF10C0B70180E390E00E94690B19
S11312E002FF17C001FD03C088E790E002C088E553
S11312F090E0B7010CC0802F867859F001FF02C03E
S11313008BE201C080E207FD8DE2B70190E00E940C
S1131310690BC11638F4B70180E390E00E94690BB1
S11313201150F7CFCA94F301EC0DF11D8081B70180
S113133090E00E94690BC110F5CF15C0F4E0F515DB
S113134060F584E0581A93FE1FC0011127C02C8554
S113135023FF2AC000EA10E0392D3071932EF801E2
S11313608491811124C0552009F4E4CCB70180E2B2
S113137090E00E94690B5A94F6CFF7018681978119
S113138026C08FEF9FEF23C0B70180E290E00E9458
S1131390690B5A945110F8CFD8CF512CB701802F34
S11313A090E00E94690BD3CF04EA10E0D5CF9110EE
S11313B08052B70190E00E94690B0F5F1F4FCFCF9F
S11313C023E0251510F483E0BDCF512CC0CF6096E7
S11313D0E2E10C94040A2F923F924F925F926F9233
S11313E07F928F929F92AF92BF92CF92DF92EF92B1
S11313F0FF920F931F93CF93DF93CDB7DEB7CA1B32
S1131400DB0BCDBFDEBF09942A88398848885F8406
S11314106E847D848C849B84AA84B984C884DF8090
S1131420EE80FD800C811B81AA81B981CE0FD11D74
S1131430CDBFDEBFED010895662777270C94250CF8
S1131440283008F027E03327DA01990F311D87FD92
S1131450916000966105710539F432602E5F3D9309
S113146030E32A95E1F708959F3F30F08038710505
S1131470610509F03C5F3C5F3D93913008F0806862
S1131480911DDF93CF931F930F93FF92EF92192F28
S1131490987F9695E92F96959695E90FFF27EE5F2D
S11314A0FE4F99273327EE24FF24A701E701059077
S11314B00894079428F4360FE71EF81E491F511D9F
S11314C0660F771F881F991F0694A1F7059007944C
S11314D028F4E70EF81E491F561FC11D770F881FF9
S11314E0991F661F0694A1F70590079428F4F80E37
S11314F0491F561FC71FD11D880F991F661F771FCD
S11315000694A1F70590079420F4490F561FC71FAE
S1131510D81F990F661F771F881F0694A9F7849117
S11315201095177041F0D695C79557954795F79440
S1131530E7941A95C1F7E8EAF0E0689415901591DC
S113154035916591959105907FE27395E118F10AC3
S1131550430B560BC90BD009C0F7E10CF11E431F16
S1131560561FC91FD01D7EF4703311F48A95E6CF3F
S1131570E894015030F0080F0AF40027021708F429
S1131580202F2395022F7A3328F079E37D932A952F
S1131590E9F710C07D932A9589F606949795679587
S11315A0379517951794E118F10A430B560BC90B9D
S11315B0D00998F023957E9173957A3308F070E3FF
S11315C07C932013B8F77E9170617D9330F08395FE
S11315D071E37D9370E32A95E1F71124EF90FF9076
S11315E00F911F91CF91DF91992787FD90950895D1
S11315F0FC010590615070400110D8F780959095DA
S11316008E0F9F1F08954EE258E20E94420B0895E8
S11316106817790768F4FB01DC01E40FF51FA40FD8
S1131620B51F02C002900E9241505040D8F7089561
S11316300C94940DFB01DC010D900020E9F7119747
S113164001900D920020E1F70895FC018191861725
S113165021F08823D9F7992708953197CF01089568
S1131660FB01DC0101900D920020E1F70895FC01DB
S11316706150704001900110D8F7809590958E0FBD
S11316809F1F0895FA01A191B081009719F4109752
S1131690E1F0CD01DC01CD010D90002011F4C00179
S11316A013C0FB012191222319F02015D9F7F3CFA0
S11316B0FB012191201519F41E92119606C02223D4
S11316C0C1F70D900020A1F7D001FA01A193B083D6
S11316D008950F931F93CF93DF93FB01238121FD83
S11316E003C08FEF9FEF2CC022FF16C046815781A5
S11316F0248135814217530744F4A081B1819D01AF
S11317002F5F3F4F208331838C93268137812F5F56
S11317103F4F2683378314C08B01EC01FB01008407
S1131720F185E02D0995892BE1F6D80116968D9166
S11317309C911797019616968D939C931797CE01BB
S1131740DF91CF911F910F910895AEE0B0E0EBEAE5
S1131750FBE00C94F9090D891E8986E08C830983CA
S11317601A838FEF9FE78D839E83AE01475E5F4FA1
S11317706F89788DCE0101960E946E06EF81F885FF
S1131780E00FF11F10822E96E4E00C94120AFA0185
S1131790AA27283051F1203181F1E8946F936E7FAC
S11317A06E5F7F4F8F4F9F4FAF4FB1E03ED0B4E09D
S11317B03CD0670F781F891F9A1FA11D680F791FDE
S11317C08A1F911DA11D6A0F711D811D911DA11DEF
S11317D020D009F468943F912AE0269F11243019FF
S11317E0305D3193DEF6CF010895462F4770405D9A
S11317F04193B3E00FD0C9F7F6CF462F4F70405D49
S11318004A3318F0495D31FD4052419302D0A9F7A3
S1131810EACFB4E0A6959795879577956795BA959D
S1131820C9F700976105710508959B01AC010A2E63
S113183006945795479537952795BA95C9F7620F3A
S1131840731F841F951FA01D0895A0E0B0E0EBE274
S1131850FCE00C94F109EC016B016115710519F0C0
S1131860FB01808391837E01FFEFEF1AFF0A088159
S1131870802F90E00E94730D892B11F0E701F3CFC4
S11318800D3239F47E0182E0E80EF11C098111E089
S113189008C00B3229F47E0192E0E90EF11C0981A3
S11318A010E0E701219743E050E06AEA71E0CE01DD
S11318B00E947C0D892BC1F4239645E050E065EA33
S11318C071E0CE010E947C0D892B09F42596C11488
S11318D0D10419F0F601C083D1831111F6C060E080
S11318E070E080E89FE7FAC043E050E062EA71E00C
S11318F0CE010E947C0D892B59F4C114D10409F442
S1131900E9C0F2E0EF0EF11CF601E082F182E2C0E0
S113191020E030E0A901C0E0D0E0F70180EDA82E7E
S1131920A00E89E08A1530F1912F9260B92E812F93
S1131930887012FF04C0811124C0219622C0811135
S11319402197A5E0B0E00E94C90DDC01CB01880F0E
S1131950991FAA1FBB1F9C01AD012A0D311D411DFA
S1131960511D283989E93807480789E1580748F0A3
S1131970166006C09EEFA9120AC013FD40C018608D
S1131980B12E8FEFE81AF80A00811B2DC6CF802FE5
S11319908F7D8534A1F580818D3211F4106106C0EC
S11319A08B3221F0319661E070E004C0818132967F
S11319B062E070E080538A3018F0E61BF70B1FC01A
S11319C060E070E060389CE079075CF4DB01AA0F0A
S11319D0BB1FAA0FBB1F6A0F7B1F660F771F680F01
S11319E0711D3196DF0111978C9180538A3050F329
S11319F014FF03C0719561957109C60FD71F11FFBC
S1131A0008C0C114D10429F0CF010197F6018083E5
S1131A109183CA01B9010E947305212F23702330D9
S1131A2019F04B015C0106C04B015C01B7FAB0949C
S1131A30B7F8B09420E030E0A901C501B4010E94D8
S1131A409D0D882309F43EC0D7FF06C0D195C195EA
S1131A50D10901EC11E002C009ED11E06801F8E1DF
S1131A60CF1AD10890E2E92EF12CCE15DF0574F0DF
S1131A70F8012591359145915491C501B4010E9415
S1131A8001064B015C01CE19DF09EFCF04501109A7
S1131A90F594E7940C151D0541F78A2D880F8B2DBD
S1131AA0881F8F3F49F020E030E0A901C501B4014F
S1131AB00E949D0D811106C082E290E08093E4288B
S1131AC09093E528C501B40109C060E070E080E8A6
S1131AD09FEF04C060E070E080EC9FE7CDB7DEB715
S1131AE0ECE00C940A0A91110C94C60D803219F0A2
S1131AF089508550C8F70895FB01DC0141505040DE
S1131B0088F08D9181341CF08B350CF4805E6591E6
S1131B1061341CF06B350CF4605E861B611171F34B
S1131B20990B0895881BFCCFFB01DC0102C00190D6
S1131B300D9241505040D8F708950E94A20D08F428
S1131B4081E00895990F0008550FAA0BE0E8FEEF15
S1131B5016161706E807F907C0F012161306E4076D
S1131B60F50798F0621B730B840B950B39F40A2666
S1131B7061F0232B242B252B21F408950A2609F444
S1131B80A140A6958FEF811D811D0895992788276F
S1131B9008950E94D40DA59F900DB49F900DA49F0D
S1131BA0800D911D11240895A29FB001B39FC0011F
S1131BB0A39F700D811D1124911DB29F700D811D75
S10D1BC01124911D0895F894FFCF3D
S1131BCA20202020202020202020002C002A00254C
S1091BDA6C6600256400A6
S1131BE05B314D49580D005B31530D005B314D4164
S1131BF0430D005B315A410D005B314152320D00FF
S1111C005B31443130300D005B4E3F0D00006F
S9030000FC
